:100BB10053617665207375636365737321005361B7
:100BC1007665206572726F72210050617373776F61
:100BD10072642C204E4F0050617373776F72642CD6
:100BE100204F4B00416C7465722070617373776F95
:100BF10072643A0050617373776F72643A00202017
:0F0C010020202020202020202020202020200024
:100F8A0001180001140001150002160000021900E0
:050F9A0000C100C101CF
:100D4A007F01120D17EFF460217F02120D17EFF4E5
:100D5A006018E4F519F51A7F01120D17EFFEEE423D
:100D6A00197F02120D17EF421A22751904751AD249
:010D7A002256
:100C6100E516FD7F01120EC37F057E00120F40AD18
:100C7100177F02120EC37F057E00120F407F011203
:100C81000D17EFF460117F02120D17EFF460087B6E
:100C9100FF7A0B79B180067BFF7A0B79BF7D017FEB
:0B0CA10002120CE47FD07E07020F401F
:100F24007DFF7F01120EC37F057E00120F407DFFFF
:0C0F34007F02120EC37F057E00020F40FA
:100E0800E514C394045022AE16AF177C007D0A1275
:100E18000ABE8E168F17E51875F00A84E5F02517B7
:0A0E2800F517E43516F5160514223F
:100CAC00E517B51A11E516B5190CE4F514F515D2BE
:100CBC0000D201020F730515E4F516F517F5147B38
:100CCC00FF7A0B79CB7D017F02120CE47D0A7C004C
:080CDC007FE87E03120EE52201
:100F5A00E514D394004011AE16AF177C007D0A1237
:090F6A000AD08E168F171514220F
:1009BD00E4F508E518600BD3940A500620010312E4
:1009CD000E08E518B40E03120F5AE515C394034033
:1009DD000B7D0A7C007FE87E03120EE5E518B40F4F
:1009ED00193000160508C28CE4F512F513F516F54D
:1009FD0017F515C2017F01120FC6E518B41012E5E7
:100A0D0008B4010DE4F508C200120C61120D4AD3B1
:100A1D0022200015E518B40D03120CACAB17AA1665
:100A2D007D0A7F01120C108059E5087018AB17AACA
:100A3D00167D0A7F01120C107BFF7A0B79D87D0190
:100A4D007F02120CE4E508B401187BFF7A0B79E5FF
:100A5D007D017F01120CE4AB17AA167D017F0212F6
:100A6D000C10E508C394024005E4F508D322C3E554
:100A7D001394B8E512940B4009C28CE4F512F513EA
:030A8D00D322C3AE
:010A90002243
:100DAC00120EA17BFF7A0B79F57D017F01120CE409
:100DBC007BFF7A0B79FF7D017F02120CE4120D4A46
:0D0DCC001208008F181209BD50F6E4FEFF5A
:010DD90022F7
:03000B00020FA041
:100FA000C0E0758A66758CFC0513E51370020512A6
:030FB000D0E0325C
:100F4000E4FDFCC3ED9FEC9E500F79027BEFDBFECE
:090F5000D9FC0DBD00010C80EA82
:010F59002275
:100FB300EF1FAA0670011E4A60087DF71DED60F061
:020FC30080FAB2
:010FC5002209
:100FC600C2A6C2A5D2A78F80C2A77F017E00020F4C
:010FD60040DA
:100E5800CFCDCFCECCCE120AD07C007D0A120AD0DC
:040E6800ED2430FF46
:100E6C00D2A6C2A5D2A78F80C2A77F017E00020F97
:010E7C004035
:100EA1007F017E00120F407F01120FC67F38120FA3
:100EB100C67F0C120FC67F06120FC67F017E00028D
:020EC1000F40E0
:100E7D008F0E8D0FE50FD394105018E50EB40106AB
:100E8D00E50F247F8009E50EB40208E50F24BFFFAE
:040E9D00120FC62248
:0A0FEF008B1B120E7DAF1B020E6C6F
:060CE4008B098A0A890B4E
:100CEA00E4F50CF50D120E7DE4F50CF50DAB09AA31
:100CFA000AA90B850D82850C83120A91FF600D12D9
:0C0D0A000E6C050DE50D70E5050C80E198
:010D160022BA
:070DDA0034FFFC7F0A7E00DC
:080DE1008E0E8F0F8C108D1196
:100DE9007F017E00E4FBEBC39511E5106480F87484
:0E0DF9008098500AAC0EAD0F120ABE0B80E8B7
:010E070022C8
:040C10008A098B0AB8
:100C1400750B00750C04E4F50D120E7DE50A45090B
:100C24007014E50C150CAE0B7002150B4E602D7F85
:100C340030120E6C80ECD3E50C9400E50B9400406C
:100C44001BE50C24FFFDE50B120DDAAC09AD0A120D
:0C0C54000E58E50C150C70DE150B80DA54
:010C60002271
:040E32008A238B2460
:100E3600120E7D852526E526D394004014E526244A
:100E4600FFFDE4120DDAAC23AD24120E58152680F0
:010E5600E5B6
:010E57002278
:10080000E4F508F5097590FFC2932097167F14FE52
:10081000120F403097FD7F147E00120F40750800C4
:100820007509012096177F147E00120F403096FD47
:100830007F147E00120F407508007509052095177A
:100840007F147E00120F403095FD7F147E00120F42
:10085000407508007509092094177F147E00120F57
:10086000403094FD7F147E00120F4075080075091A
:100870000D7590FFC2922097177F147E00120F40D3
:100880003097FD7F147E00120F4075080075090235
:100890002096177F147E00120F403096FD7F147E45
:1008A00000120F407508007509062095177F147E09
:1008B00000120F403095FD7F147E00120F40750826
:1008C0000075090A2094177F147E00120F4030949F
:1008D000FD7F147E00120F4075080075090E75909B
:1008E000FFC2912097177F147E00120F403097FDB2
:1008F0007F147E00120F40750800750903209617BB
:100900007F147E00120F403096FD7F147E00120F80
:10091000407508007509072095177F147E00120F97
:10092000403095FD7F147E00120F40750800750958
:100930000B2094177F147E00120F403094FD7F141B
:100940007E00120F4075080075090F7590FFC29068
:100950002097177F147E00120F403097FD7F147E82
:1009600000120F407508007509042096177F147E49
:1009700000120F403096FD7F147E00120F40750864
:10098000007509082095177F147E00120F403095DE
:10099000FD7F147E00120F4075080075090C20942D
:1009A000177F147E00120F403094FD7F147E0012DA
:0C09B0000F40750800750910AE08AF0973
:0109BC002218
:090FF900D2A1D2A0C2A0C2A12223
:07100B00C2A0D2A1D2A02275
:020D7B00A907C6
:100D7D00E4FBFAAF037E007480A807088006CEA2BC
:100D8D00E713CE13D8F8FFE9FDEF5D24FF92A0D253
:0E0D9D00A1C2A10BBB00010AEB64084A70D58D
:010DAB002225
:100F0600E4FFFED2A0D2A130A00DA806748008800E
:0D0F160002C313D8FC4207C2A10EBE08E8BA
:010F230022AB
:09100200EF1392A0D2A1C2A122B9
:0C0FD700E4FFD2A0D2A130A0010FC2A103
:010FE30022EB
:100EC3008F098D0A120FF97FA0120D7B120FD7AF76
:100ED30009120D7B120FD7AF0A120D7B120FD70227
:020EE300100BF2
:020D17008F0942
:100D1900E4F50A120FF97FA0120D7B120FD7AF0964
:100D2900120D7B120FD7120FF97FA1120D7B120F33
:100D3900D7120F068F0A7F0112100212100BAF0A89
:010D49002287
:100F73005389F0438901758A66758CFCC28DD28CC6
:070F8300D2A9D2AFC2B922CE
:0B0FE400EF1FAC0670011E4C70F622DF
:100EE500AB05AA048F828E83E5821582AE837002DC
:100EF50015834E600BB2A5AF03AE02120FE480E876
:010F050022C9
:03000000020B25CB
:0C0B2500787FE4F6D8FD758126020B6C89
:100A9100BB010CE58229F582E5833AF583E022501A
:100AA10006E92582F8E622BBFE06E92582F8E22264
:0D0AB100E58229F582E5833AF583E493227E
:100ABE00EF8DF0A4A8F0CF8CF0A428CE8DF0A42E4C
:020ACE00FE2206
:100AD000BC000BBE0029EF8DF084FFADF022E4CC0A
:100AE000F875F008EF2FFFEE33FEEC33FCEE9DECD3
:100AF000984005FCEE9DFE0FD5F0E9E4CEFD22ED19
:100B0000F8F5F0EE8420D21CFEADF075F008EF2F62
:100B1000FFED33FD4007985006D5F0F222C398FD53
:050B20000FD5F0EA22F0
:100B3100020DACE493A3F8E493A34003F68001F221
:100B410008DFF48029E493A3F85407240CC8C333C5
:100B5100C4540F4420C8834004F456800146F6DF94
:100B6100E4800B0102040810204080900F8AE47E8B
:100B7100019360BCA3FF543F30E509541FFEE49389
:100B8100A360010ECF54C025E060A840B8E493A350
:100B9100FAE493A3F8E493A3C8C582C8CAC583CA7B
:100BA100F0A3C8C582C8CAC583CADFE9DEE780BE33
:010F9F000051
:00000001FF
