:100BCE00536176652073756363657373210053619A
:100BDE007665206572726F72210050617373776F44
:100BEE0072642C204F4B0050617373776F72642CBC
:100BFE00204E4F00416C7465722070617373776F75
:100C0E0072643A00202020202020202000506173A2
:100C1E0073776F72643A002020202020202020203D
:080C2E002020202020202000DE
:100F9900011000010C00010D00020E0000020A0000
:050FA90000C100C101C0
:100D87007F01120D54EFF460217F02120D54EFF42E
:100D97006018E4F50AF50B7F01120D54EFFEEE42E1
:100DA7000A7F02120D54EF420B22750A04750BD20B
:010DB7002219
:100C3600E50EFD7F01120ED27F057E00120F4FAD2D
:100C46000F7F02120ED27F057E00120F4F7F011218
:100C56000D54EFF460117F02120D54EFF460087B1F
:100C6600FF7A0B79CE80067BFF7A0B79DC7D017FDC
:100C760002120D217FD07E07120F4FE4F50EF50FFD
:030C8600F50C2248
:100F33007DFF7F01120ED27F057E00120F4F7DFFD2
:0C0F43007F02120ED27F057E00020F4FCD
:100E1700E50CC394045022AE0EAF0F7C007D0A127E
:100E270009EA8E0E8F0FE51075F00A84E5F0250F9D
:0A0E3700F50FE4350EF50E050C2250
:100CDA00E50FB50B20E50EB50A1BE4F50EF50FF589
:100CEA000CF50DD2017BFF7A0B79E87D017F0212A8
:100CFA000D21020F82050DE4F50EF50FF50C7BFFB1
:100D0A007A0B79F57D017F02120D217D0A7C007F25
:070D1A00E87E03120EF42233
:100F6900E50CD394004011AE0EAF0F7C007D0A1240
:090F790009FC8E0E8F0F150C22ED
:100B5900200112E510B40D03120CDAAB0FAA0E7DB9
:100B69000A7F01805CE510640F703030012DD200DE
:100B7900C28CF508F5097BFF7A0C79027D017F01AA
:100B8900120D21AB0FAA0E7D017F02120C897BFF8A
:100B99007A0C79127D057F02020D21200118AB0F15
:100BA900AA0E7D0A7F01120C897BFF7A0B79E87DF9
:100BB900017F02120D2130000BAB0FAA0E7D017FC0
:050BC90002120C89225C
:100ADD00120EB07BFF7A0C791B7D017F01120D2167
:100AED007BFF7A0C79257D017F02120D21120D8776
:100AFD001208008F10120B59E5106008D3940A509C
:100B0D0003120E17E510B40E03120F69E510B410A1
:100B1D000F30000CC200C201120C36120D87802856
:100B2D00C3E50994B8E508940B4009C28CE4F508B7
:100B3D00F5098014E50DC3940340B57D0A7C007F53
:0B0B4D00E87E03120EF480A8E4FEFF17
:010B5800227A
:03000B00020FAF32
:100FAF00C0E0758A66758CFC0509E50970020508B5
:030FBF00D0E0324D
:100F4F00E4FDFCC3ED9FEC9E500F79027BEFDBFEBF
:090F5F00D9FC0DBD00010C80EA73
:010F68002266
:100FC200EF1FAA0670011E4A60087DF71DED60F052
:020FD20080FAA3
:010FD40022FA
:100FD500C2A6C2A5D2A78F80C2A77F017E00020F3D
:010FE5004FBC
:100E6700CFCDCFCECCCE1209FC7C007D0A1209FC77
:040E7700ED2430FF37
:100E7B00D2A6C2A5D2A78F80C2A77F017E00020F88
:010E8B004F17
:100EB0007F017E00120F4F7F01120FD57F38120F76
:100EC000D57F0C120FD57F06120FD57F017E000251
:020ED0000F4FC2
:100E8C008F168D17E517D394105018E516B401067C
:100E9C00E517247F8009E516B40208E51724BFFF87
:040EAC00120FD5222A
:0A0FFE008B21120E8CAF21020E7B36
:060D21008B118A128913F8
:100D2700E4F514F515120E8CE4F514F515AB11AABC
:100D370012A9138515828514831209BDFF600D1250
:0C0D47000E7B0515E51570E5051480E134
:010D5300227D
:070DE90034FFFC7F0A7E00CD
:080DF0008E168F178C188D1967
:100DF8007F017E00E4FBEBC39519E5186480F87465
:0E0E08008098500AAC16AD171209EA0B80E86C
:010E160022B9
:040C89008A118B122F
:100C8D00751300751404E4F515120E8CE51245115B
:100C9D007014E5141514AE13700215134E602D7FEC
:100CAD0030120E7B80ECD3E5149400E513940040D4
:100CBD001BE51424FFFDE513120DE9AC11AD121265
:0C0CCD000E67E514151470DE151380DAB4
:010CD90022F8
:040E41008A1C8B1D5F
:100E4500120E8C851E1FE51FD394004014E51F2448
:100E5500FFFDE4120DE9AC1CAD1D120E67151F80D8
:010E6500E5A7
:010E66002269
:10080000E4F511F5127590FFC2932097167F14FE40
:10081000120F4F3097FD7F147E00120F4F7511009D
:100820007512012096177F147E00120F4F3096FD2F
:100830007F147E00120F4F75110075120520951759
:100840007F147E00120F4F3095FD7F147E00120F33
:100850004F7511007512092094177F147E00120F36
:100860004F3094FD7F147E00120F4F7511007512EA
:100870000D7590FFC2922097177F147E00120F4FC4
:100880003097FD7F147E00120F4F75110075120214
:100890002096177F147E00120F4F3096FD7F147E36
:1008A00000120F4F7511007512062095177F147EE8
:1008B00000120F4F3095FD7F147E00120F4F7511FF
:1008C0000075120A2094177F147E00120F4F309487
:1008D000FD7F147E00120F4F75110075120E75907A
:1008E000FFC2912097177F147E00120F4F3097FDA3
:1008F0007F147E00120F4F7511007512032096179A
:100900007F147E00120F4F3096FD7F147E00120F71
:100910004F7511007512072095177F147E00120F76
:100920004F3095FD7F147E00120F4F751100751228
:100930000B2094177F147E00120F4F3094FD7F140C
:100940007E00120F4F75110075120F7590FFC29047
:100950002097177F147E00120F4F3097FD7F147E73
:1009600000120F4F7511007512042096177F147E28
:1009700000120F4F3096FD7F147E00120F4F75113D
:10098000007512082095177F147E00120F4F3095C6
:10099000FD7F147E00120F4F75110075120C20940C
:1009A000177F147E00120F4F3094FD7F147E0012CB
:0C09B0000F4F751100751210AE11AF1240
:0109BC002218
:09100800D2A1D2A0C2A0C2A12213
:07101A00C2A0D2A1D2A02266
:020DB800A90789
:100DBA00E4FBFAAF037E007480A807088006CEA27F
:100DCA00E713CE13D8F8FFE9FDEF5D24FF92A0D216
:0E0DDA00A1C2A10BBB00010AEB64084A70D550
:010DE80022E8
:100F1500E4FFFED2A0D2A130A00DA80674800880FF
:0D0F250002C313D8FC4207C2A10EBE08E8AB
:010F3200229C
:09101100EF1392A0D2A1C2A122AA
:0C0FE600E4FFD2A0D2A130A0010FC2A1F4
:010FF20022DC
:100ED2008F118D121210087FA0120DB8120FE6AFFB
:100EE20011120DB8120FE6AF12120DB8120FE60270
:020EF200101AD4
:020D54008F11FD
:100D5600E4F5121210087FA0120DB8120FE6AF11BB
:100D6600120DB8120FE61210087FA1120DB8120F5D
:100D7600E6120F158F127F0112101112101AAF1200
:010D8600224A
:100F82005389F0438901758A66758CFCC28DD28CB7
:070F9200D2A9D2AFC2B922BF
:0B0FF300EF1FAC0670011E4C70F622D0
:100EF400AB05AA048F828E83E5821582AE837002CD
:100F040015834E600BB2A5AF03AE02120FF380E857
:010F140022BA
:03000000020A51A0
:0C0A5100787FE4F6D8FD758121020A9838
:1009BD00BB010CE58229F582E5833AF583E02250EF
:1009CD0006E92582F8E622BBFE06E92582F8E22239
:0D09DD00E58229F582E5833AF583E4932253
:1009EA00EF8DF0A4A8F0CF8CF0A428CE8DF0A42E21
:0209FA00FE22DB
:1009FC00BC000BBE0029EF8DF084FFADF022E4CCDF
:100A0C00F875F008EF2FFFEE33FEEC33FCEE9DECA7
:100A1C00984005FCEE9DFE0FD5F0E9E4CEFD22EDED
:100A2C00F8F5F0EE8420D21CFEADF075F008EF2F37
:100A3C00FFED33FD4007985006D5F0F222C398FD28
:050A4C000FD5F0EA22C5
:100A5D00020ADDE493A3F8E493A34003F68001F2C8
:100A6D0008DFF48029E493A3F85407240CC8C3339A
:100A7D00C4540F4420C8834004F456800146F6DF69
:100A8D00E4800B0102040810204080900F99E47E51
:100A9D00019360BCA3FF543F30E509541FFEE4935E
:100AAD00A360010ECF54C025E060A840B8E493A325
:100ABD00FAE493A3F8E493A3C8C582C8CAC583CA50
:100ACD00F0A3C8C582C8CAC583CADFE9DEE780BE08
:010FAE000042
:00000001FF
